:020000040001F9
:10F0000098A50020E18002001B070200830E020089
:10F010004B1B02000F2602000F3A02000000000006
:10F020000000000000000000000000005F4502003A
:10F03000C7570200000000000F6202001F750200A7
:10F040002152020085800200AB800200417702005D
:10F05000D9680200B7800200E5630200ED77020084
:10F060007D7F0200817F0200857F0200F98002001F
:10F07000FB800200FD800200FF800200018102008F
:10F08000038102003D3B020005810200078102006E
:10F09000C53B020009810200DF4602000B8102002D
:10F0A0000D8102000F810200897F02008D7F020026
:10F0B0001181020013810200000000000000000026
:10F0C0001581020017810200198102001B810200D4
:10F0D0001D8102001F81020021810200000000004A
:10F0E0000000000000000000000000000000000020
:10F0F0000000000000000000000000000000000010
:10F1000000000000000000000000000000000000FF
:10F1100000000000000000000000000000000000EF
:10F4000038B5DFF8105C6968044608001CBF204668
:10F410008847A96808001CBF20468847E968009112
:10F4200008001CBF204688472A6911001CBF2046DF
:10F4300090476969009108001CBF20468847AA6967
:10F4400011001CBF20469047E969009108001CBFCD
:10F45000204688472A6A110003D02046BDE8324082
:10F46000104731BD2DE9F00100F5805300F108058A
:10F470000220DFF8586C08800024D6F830C04FF620
:10F48000FF7813E0012409E0AF8847451CBF2888B6
:10F490000028F7D0A868604528BF844668880F8890
:10F4A00005EB8005C01CC0190C3508809D4203D2B5
:10F4B000286810F1010FE7D102B11470C6F830C00E
:10F4C000BDE8F00170470389CA1CD3180381438942
:10F4D000591AC91E4181704770B4C01C80B240F2F5
:10F4E000FE329042A8BF09201DDADFF8104C00233D
:10F4F00025462A783AB92A896E891218B21892B22A
:10F50000B2F5806F06DB5B1C1035012BF1DD70BCA2
:10F51000072070470B8004F10A011B010A34CA5A04
:10F520008018E052002070BC7047DFF8182C02EB06
:10F5300001114B89181AC01E4881704730B4DFF89A
:10F54000083C0A6800011B5812B903F1080203E0E5
:10F55000508802EB80020C3203F5805082420FD2B9
:10F56000146814F1010F0BD094884FF6FF75AC426C
:10F570001CBF10880028EBD00A60012030BC704707
:10F5800030BC00207047F0B403460A465C68200097
:10F5900026D0DFF8B85B2E682146B14224BF6D68E3
:10F5A0008D421DD314F0030F01BF1889DFF81C5BD7
:10F5B0002E89B04214D11868A568A84210D1002045
:10F5C000DFF8383B5C688C423CBF04F58054A142B4
:10F5D00004D3401C10330228F4DB32E0108026E014
:10F5E000002010804FF6FF75DFF8106B1F687468FD
:10F5F00004F1080105E00029F9D0488801EB8001F9
:10F600000C3104F58050814214D2086810F1010FCA
:10F6100010D08888A8421CBF08880028EDD08868D0
:10F62000B842E8D15960DFF8A41A0889188101208E
:10F63000F0BC70471088401C1080103680B2022841
:10F64000D4DBF0BC002070472DE9F047DFF87C8A5E
:10F650000D4698F810101C468B0758BF022058D54D
:10F66000130018BF002C1FD0A188022950DA4FF6D2
:10F67000FF79DFF8D0AA01462A46B4F804C04FEA61
:10F680000C1E1AF80E0000283CD10AF1040520686F
:10F6900055F80E5000280FBF05F10806468800EB0C
:10F6A000860000F10C0606E00520BDE8F0877088B2
:10F6B00006EB80060C3605F58050864220D237686E
:10F6C00017F1010F1CD0B7884F451CBF30880028A8
:10F6D000EDD02660354600291EBFAE880F88BE4299
:10F6E000D3D1002A1EBF2E881788BE42CDD1A8686C
:10F6F00018605D600020B8F808101981BDE8F08737
:10F70000002020600CF10100A08080B20228B4DB50
:10F710000A20BDE8F0872DE9F04FDFF8206B776F06
:10F720000023032F2ED8DFF8104B656CC1F1080CB5
:10F73000AC4527D3336FDF1907F00307C7EBC70CBE
:10F7400006EB8C0790E8085F87E8085F706F401C45
:10F750007067B1B1206C451905F0070504EBC503CE
:10F76000084604F13805D2E90067C3E90067AB42F7
:10F7700014BF083323460832401EF4D1606C0918C8
:10F78000616401231846BDE8F08F000080B50022B7
:10F79000009201465FF0010303A2DFF8B00900F018
:10F7A0006EFE00B10E2002BD0000FFFF38B5DFF88D
:10F7B0001C49DFF84819608801EB0015DFF88C0957
:10F7C000A98939B969680023012200F0A6FE042244
:10F7D000227032BD0521217001B0616902232383AB
:10F7E0000023BDE83040012200F097BE1CB5DFF8D1
:10F7F000DC08416842684B8803210170DB1C4169C9
:10F80000008B002401EB800100949BB2DFF83C09DF
:10F8100000F035FE16BD80B5DFF8B008011D408848
:10F82000FFF78CFE10B1BDE80140DFE7BDE8014005
:10F83000BCE700002DE9F841DFF8005A0146286FC7
:10F84000C0EBC00205EB820685B033785B1E052B4A
:10F8500000F2FB81DFE813F0060080008000240145
:10F8600024016D010F2031B1DFF86008017C01F047
:10F87000FE0101745EE13179032962D8DFE801F00D
:10F8800053302202DFF844480FF61022616900204D
:10F8900000900223DFF8B40800F0F1FD6288DFF881
:10F8A0005C1812010F1D6369BF5867610F1DBB50C3
:10F8B00001F10807238BBB520223238300238B54BF
:10F8C00033713EE0DFF80448DFF880086169002307
:10F8D000012200F022FE022121830022327130E059
:10F8E000DFF818482078002702281EBF1027207C48
:10F8F00002280DD100210091201D0223C1590FF6CD
:10F900009C12DFF8480800F0BAFD0021E15518E02C
:10F91000DFF8B807017C01F0FE0141F0020101743B
:10F9200041F61D54B4E00020DFF8A0170FF6641272
:10F93000496900900223DFF8140800F0A0FD0121BE
:10F940003171002800F0F381DFF88007017C01F0BD
:10F95000FE0101740E249BE0728ADFF8A00700EB21
:10F96000021721B1F1883846FFF7ADFDE2E0786873
:10F97000398900EB8104307C062800F28180DFE8C1
:10F9800000F070124F266307040041F61D5478E022
:10F99000DFF83807806AFFF7F9FE04460620002CDE
:10F9A00030746ED171E000200090012306F108024E
:10F9B000211DDFF8980700F062FD317803290CBFA4
:10F9C000052106210028317458D00E2459E0DFF8B3
:10F9D0006818486C4FF0000840B10A6C01EBC2088F
:10F9E000521C02F00702401E0A6448640020009086
:10F9F000B08AB8F80430D8F8002004EB8001DFF8B2
:10FA00004C0700F03CFDB28AB8F804108A18B282A4
:10FA1000B27D511ECBB20BB901223274B17510E028
:10FA200000200090012306F10C0204F10801DFF828
:10FA30001C0700F024FDB17D002914BF0321012122
:10FA400031740028C1D119E0DFF8800600218162FD
:10FA50006946B26942622430FFF795FD08B90A246D
:10FA600016E0002000900123321D2146DFF8DC065D
:10FA700000F005FD022100283174A6D1002404E025
:10FA80000F24F1883846FFF71EFD002C00F04F814F
:10FA900041F61D50844240F0DA8000210191E6E0F9
:10FAA000002947D1307918B3022801D003D33EE0B2
:10FAB00041F61D54E9E7DFF8147607F11C036A46A6
:10FAC000B01DFFF7C1FD04000AD10198FFF75EFEEB
:10FAD000398C0446DFF8A80709010122425404E0EA
:10FAE00007F11C000021C0E900110A2CCDD1DFE78D
:10FAF00001A80022002380E80E00F4680194694602
:10FB0000FFF741FD78B102988188F1800288328147
:10FB1000FFF73CFEBDF80020DFF864170446120131
:10FB20000120885400E00A2402203071ADE70F2440
:10FB3000ABE709B10124ABE7DFF89015087BD8B13A
:10FB400000220A730878401E0628F0D8DFE800F08B
:10FB50005C46767304310500E9E7072200230A704A
:10FB60004B600093022349690FF22872DFF8DC052D
:10FB700000F085FC044688E708780728E2D8DFE82B
:10FB800000F03004042508050541DBE707220A7070
:10FB9000E3E74B88DFF864051B01041D4A69E75859
:10FBA0004F61E25008300A8BC252022306220B83B7
:10FBB0000A700620087000234988DFF88C050FF2D0
:10FBC000DC620093090102234158CFE74A68538859
:10FBD000088BDB1C1818088302200870FFF71BFE37
:10FBE000C8E70889401C08810022DFF810054A8018
:10FBF00003785A1E9241D20F8A72007C401E8041C7
:10FC0000C00FC8720120087000220B46DFF8EC44D8
:10FC10000027987A30B19F72A089002804BFA07B8A
:10FC200001280ED0521C10345B1C022AF1DB0F702D
:10FC30004F804F603CE7FFF7B9FD9BE7FFF7D6FD2C
:10FC400098E74A80FFF7E7FD94E70F2420E7019447
:10FC50003078022818BF032809D1DFF8DC15B27DFF
:10FC6000086C4B6C82180A64B07D1B1A4B643178A7
:10FC7000491E05293CD8DFE801F0382C191107038B
:10FC800005228DF8002033E004218DF800100021BA
:10FC9000F088ADF80C00ADF80E1029E003218DF8C6
:10FCA0000010F088ADF80C00308919E002218DF8C1
:10FCB00000103089ADF80C00B088ADF80E00F06887
:10FCC0000290307C06280CBF012100218DF8101015
:10FCD0000EE001218DF800103089ADF80C00B088DD
:10FCE000ADF80E00F168029102E000218DF80010DD
:10FCF0006846FFF785FB286FC0EBC0021C2105EBAF
:10FD0000820000F0BBFC686F58B1296F491C01F0FC
:10FD10000301401E2967686703D00020FFF78AFDB2
:10FD200005E0DFF8A803017C01F0FB01017406B0D7
:10FD3000BDE8F081DFF89403017C4A0704D441F068
:10FD400004010174002075E57047084672E52DE94D
:10FD5000F047DFF878730546387C9846002683071D
:10FD600088B058BF02206ED50C0008BF05206AD0AD
:10FD700020884FF6FF7188421ABF6088002804204F
:10FD800061D0218963680846B446994601E00CF1C8
:10FD9000010C844506D219F808AB1AF0030FF6D00F
:10FDA000032050E062B929B1191D31F8082BB618AB
:10FDB000401EFAD16946B0B2FFF78EFB20B142E097
:10FDC0001088ADF800005688BDF800008DF804805A
:10FDD00000218DF81410ADF81600032221898DF84A
:10FDE0001A10ADF81820396B491C0491B8F1030FB3
:10FDF0002288ADF80C206288ADF80820ADF80A60C2
:10FE000004D104228DF814202B6807930020ADF84C
:10FE10000E00396301A862682189FFF77CFC30B9C4
:10FE2000BDF80010B0B2FFF780FB08200BE03DB139
:10FE300000206860002104982860A9723889288110
:10FE4000FFF778FF002008B0BDE8F08771490A7815
:10FE5000082A01D10C20704701EB8203521C586024
:10FE60000A700020704700002DE9F04F974D287C64
:10FE7000810787B004D50FF22C40FFF7C1FAC8E024
:10FE8000C10700F1C68040F0010028744FF000085F
:10FE900000F0A3FAC146C246C3460324DFF8E46378
:10FEA000AA4F386858440168B14231D14268DFF83E
:10FEB000D833D21A02D0521E0DD029E08F4901EB5F
:10FEC000091148F002080A70486001F10E02083179
:10FED000FFF7C8FA48E0BAF1000F0BD0874901EBF1
:10FEE000091102230B706A694A600B8109F1010153
:10FEF0001FFA81F96861002205F11801FFF7B2FAD3
:10FF0000288B02280CBF0420082040EA080837E0AC
:10FF100000210246136813F1010F04BF536813F167
:10FF2000010F1CD1936813F1010F04BFD36813F1C3
:10FF3000010F14D1091D1032B1F5806FEAD3696940
:10FF4000B9B16E4A02EB091102230B7048600B81B4
:10FF5000A5F8029009F101001FFA80F90EE0674947
:10FF60004FEA09120320885409F101001FFA80F9B1
:10FF700006E068614FF0010A0220288348F001087A
:10FF8000641E0BF5805B8CD15FFA88F008B90B20FA
:10FF90005BE006280AD1287C00F0FE0040F0020059
:10FFA00028740FF20030FFF72BFA32E0401E0121D7
:10FFB0000A288DF8001011D8DFE800F006100610AE
:10FFC0000E100E10080A0800002002E0032000E0D6
:10FFD00002208DF8040001E08DF8041097494A6F63
:10FFE000042A14D2DFF8A402436C082B0FD86C4605
:10FFF00094E8E053086F821802F00302C2EBC203D8
:020000040002F8
:1000000001EB830282E8E053486F401C4867FFF72A
:1000100091FE19E0EC9300206E4696E8805F086F31
:10002000041904F00304C4EBC40501EB850484E85F
:10003000805F486F401C4867580705D443F00403AD
:1000400013740020FFF7F6FB002007B0BDE8F08F27
:100050007CB504000D4618BF002D01D1052076BDEA
:100060006946FFF790FA88B1BDF80010354A0901DA
:1000700002F10C030C325E5A6068761C56522860FE
:1000800001210C306860A172002076BD0A2076BD87
:100090001CB5040001D1052016BD6946FFF773FAAF
:1000A00088B1BDF80010274800EB011291890029A2
:1000B0001CBFA07A002804D0491E91810020A072A4
:1000C00016BD062016BD0A2016BD00000C930020A8
:1000D00038B504466E480D46017C880701D40220DD
:1000E00032BD0CB9052032BD69462846FFF7F4F948
:1000F00018B9BDF800102180658032BD50940020F1
:1001000070B41B490A7C910758BF022018D510B95A
:1001100070BC052070470288022A10DC094B458814
:1001200003EB02135C89661BF61E08D4641BE11EF8
:100130005981002202804280002070BC7047042058
:1001400070BC7047509400205494002054850020C7
:1001500002230AE0002A1CBF0223FFF7F8BD052096
:10016000704708B90520704703230022EFE500001F
:100170000C9300202DE9F04F0F4A137C990787B0AC
:1001800058BF022017D54FF6FF74A04208BF0420C5
:1001900011D005218DF8001001248DF80440ADF830
:1001A000060026494C6F042C04D23848456C082DB3
:1001B00000D831E7082048E70C9300202DE9F843E8
:1001C00033490A7C900786B058BF022031D51B4BBB
:1001D0005C6F032C9EBF1848456C082D28D8186FFB
:1001E000041904F00304C4EBC405AC0006261E5534
:1001F0005F6F186FC719684607F00307C7EBC7049E
:1002000090E8C05303EB8404251D85E8C0535C6F60
:10021000641C5C67087808B101230B73500705D490
:1002200042F004020A740020FFF704FB002000E003
:10023000082007B0BDE8F0835C910020388E0020D4
:1002400003B581B002A901A8FFF7FEF903B000BD14
:1002500001B513460A466946002004E001B513467D
:100260000A4600216846FFF7EFF902BD002818BFD3
:10027000002901D105207047006808600020704700
:100280005E940020DEC0ADDEFE011EF15C91002018
:100290000C930020DEC0ADDEFF011EF1DEC0ADDE3E
:1002A000FE011EF100000000000000000000000040
:1002B000000000000000000070B584B002466846EF
:1002C000002300240025002680E87800137A012B03
:1002D00002D0022B08D012E08DF80040136902937F
:1002E000938AADF80C300AE001238DF80030948930
:1002F000D089241AADF808409089ADF80A00684604
:100300005368019312689368984704B070BDDFF892
:100310005413486E401E05D1DFF84C23137803F0C8
:10032000FD03137048660A6E521C042A08BF00229F
:100330000A667047DFF82C03016E01EB410200EB07
:10034000C203406E002800D1704730B4187A0128EB
:1003500002D0022813D020E0DA8A998A1D6910465B
:100360000C1AB4F5806FDC68B4BF8A1A4FF480624F
:1003700004EB800192B205EB800029DF01E098894F
:1003800028DF112808D1B848017801F0FD0141F0BB
:100390000401017030BC704718B130BC0921184607
:1003A0008AE730BC704738B50446AE48416E042930
:1003B00001D1002032BD026E8A18042A28BF121F04
:1003C000491C416602EB420300EBC3051821284695
:1003D00000F054F92560012032BD2DE9F043A34A15
:1003E000A348A449D2F800E0411A09091EF1010FFF
:1003F0000E4603D1A04800684FEA003EDFF868923D
:1004000099F800C05FEACC7036D459B1D9F80430FD
:100410000A46186800281EBF58680028761E103348
:10042000521EF6D100271EB3D9F8048000223B46A5
:10043000002479B14546286800281CBF6868002858
:1004400004D1687B82423CBF02462346641C1035BF
:100450008C42F0D3DBB208EB03107F1C027BC0F8A8
:1004600004E0120352429644B742C0F800E0DDD3E4
:100470004CF0010089F800000020BDE8F0832DE970
:10048000FC41794F064638780C46C1071546984618
:1004900058BF01203FD556B179688E4207D3BA685C
:1004A000964204D2002D18BF002C01D17AE07CE0E6
:1004B00015F003010CBF14F0030006202BD13068A7
:1004C000844223BF716804EB88008142052022D357
:1004D0005FEA080008BF04201DD06846FFF763FFED
:1004E00000B965E00099089848600121009806600D
:1004F000009A11720098C56000990C610098A0F8EC
:100500001480387810F0060F04D140F002003870E3
:10051000FFF710FF0020BDE8F6812DE9FC41524DA8
:10052000044628781646C207984658BF012037D59A
:100530003CB16A68944204D3AB689C4201D209B9C9
:1005400030E032E0080518BF062029D120680F46A8
:10055000874223BF626801EB0630824205201FD329
:10056000300008BF04201BD06846FFF71CFF00B90D
:100570001EE00098C0F80480022000990C603F0B38
:10058000009A10720098878100990E82287810F0E6
:10059000060F04D140F002002870FFF7CBFE0020C8
:1005A000BDE8F6810320BDE8F6810220BDE8F681B2
:1005B0000720BDE8F68108B90320704729494A6E33
:1005C00002600020704738B5264A0146106E00EBE5
:1005D000400302EBC300244B1C78A50734D5022945
:1005E00002D0032922D038E000215970027A012A72
:1005F0000CD0022A31D18189028A491C8181C189AA
:10060000491CC18189B2914227D10DE0C28A838AF7
:100610009C1AB4F5806FB4BF991A4FF480618A18A0
:10062000C28292B29A4218D1002108E05978491C3E
:100630005970C9B2042910DB002159700821FFF755
:100640003BFEFFF764FE08E0600706D5506E04F03D
:10065000FB0408B144F002041C70BDE8314069E6B7
:1006600000000000948F0020008000201410001073
:10067000748500205485002014000010002200F032
:100680001DB830B4002513E050F8042BD30744BF45
:10069000A9F101039A18091F042942F8045BFAD250
:1006A00013468C0744BF15809B1CC90748BF1D70AB
:1006B00050F8041B0029E7D130BC7047401810F0F7
:1006C000030308D0C91A1FD3DB0748BF00F8012D68
:1006D00028BF20F8022D130030B4144615461039F7
:1006E00028BF20E93C00FAD8490728BF20E90C00C0
:1006F00048BF40F8042D890028BF20F8022D48BFCC
:1007000000F8012D30BC7047C91818BF00F8012D42
:10071000CB0728BF00F8012D7047FEE710B504464F
:1007200000F091FD2046BDE8104000F09ABF70B582
:10073000DFF88056DFF880666888317801F085F947
:10074000002408B9204670BD3178E88901F07DF9B0
:1007500001240028F6D03178688B01F076F9022464
:100760000028EFD03178E88C01F06FF903240028DD
:10077000E8D03178688E01F068F904240028E1D0CF
:100780003178E88F01F061F905240028DAD031785A
:1007900035F84A0F01F059F906240028D2D03178F3
:1007A000A88901F052F907240028CBD0FF2070BDA2
:1007B00010B5DFF804261178044601F046F910B3AD
:1007C000DFF8F0154A880020A2421EBF0120CA8926
:1007D000A24219D04A8B0220A2421EBF0320CA8C1B
:1007E000A24211D04A8E0420A2421EBF0520CA8F09
:1007F000A24209D031F84A2F0620A2421EBF07208C
:100800008989A14200D0FF2010BDF8B50C46FF2514
:10081000002C1CBF4FF6FF76B04207461DD0DFF814
:1008200098351978012201F020F93846FFF7C0FF0A
:100830000546FF2D02D1FFF77AFF0546FF2D0CD0AC
:1008400005EB45008000DFF86C150A180E52578042
:10085000101D2146072201F025F92846F2BD80B57A
:10086000002818BF002905D002780B785208B2EB97
:10087000530F01D0002002BD0622491C401C01F08C
:1008800065F9401E8041C00F02BD01460A88102A4A
:1008900000D0704738B590B003A8091D342201F08C
:1008A00011F99DF8100040084FF6FF7503282C46FB
:1008B00027D001F0DAFA9DF81000400802D0022893
:1008C00011D01ED201AA6946072001F0D3FAC0B1A7
:1008D000029800F1110104A8FFF7C1FF0028F1D030
:1008E000BDF800400DE001AA6946072001F0C2FAF8
:1008F00038B10298411C04A800F0A0FA0028F2D0F8
:10090000EEE7BDF80C0004A9FFF77FFFAC423ED034
:10091000DFF8A404BDF80C500178284601F095F8E2
:1009200010B3DFF890144A880020AA421EBF0120AD
:10093000CA89AA4219D04A8B0220AA421EBF0320AC
:10094000CA8CAA4211D04A8E0420AA421EBF05209A
:10095000CA8FAA4209D031F84A2F0620AA421EBFE8
:1009600007208989A94200D0FF20FF2805D000EB8D
:100970004002DFF8401490000C520122BDF80C1028
:10098000ADF802108DF800206846FFF7C7FE11B0E1
:1009900030BD70B505460E460020691C0A7862B964
:1009A0004B7853B98A78002A07D1CB782BB9001D30
:1009B000091D1028F2D3002070BD1022711C681C84
:1009C00001F0C4F8441E06F1110105F11100A44123
:1009D000FFF745FFE40F24B9401E8041C043C00F1C
:1009E00070BD012070BD18B5044687B0207800287E
:1009F00004BF207907282AD1608805AA072101F0C1
:100A000095FC20BB01F031FA03AA6946072001F0EA
:100A100031FAE0B16088BDF800108842F4D0049942
:100A20000698FFF7B6FF0028EED0608800F0EDF8DA
:100A30000021ADF806008DF80410BDF800006288B2
:100A4000ADF80A00ADF8082001A8FFF767FE08B06E
:100A500010BD10B5DFF86043182020704FF6FF710D
:100A6000DFF850034180C1814183C1844186C18741
:100A700020F84A1F818100F0D3FF1828207001D18F
:100A8000032010BD002010BD10B5DFF82C23117815
:100A9000044600F0DAFF10B3DFF818134A8800208C
:100AA000A2421EBF0120CA89A24219D04A8B02204D
:100AB000A2421EBF0320CA8CA24211D04A8E04203B
:100AC000A2421EBF0520CA8FA24209D031F84A2F88
:100AD0000620A2421EBF07208989A14200D0FF2024
:100AE000FF2806D000EB4002DFF8C8129000085A39
:100AF00010BD4FF6FF7010BD38B5DFF8BC220D46B3
:100B00001178044600F0A1FF10B3DFF8A802428874
:100B10000021A2421EBF0121C289A24219D0428BEC
:100B20000221A2421EBF0321C28CA24211D0428EDA
:100B30000421A2421EBF0521C28FA24209D030F873
:100B40004A2F0621A2421EBF07218089A04200D061
:100B5000FF21FF290CD0DFF85C2201EB410302EBFF
:100B600083012846091D072200F09CFF002032BDAA
:100B7000052032BD10B50388002B04BF8278002AFF
:100B800013D1C278002A04BF0279002A0DD142791C
:100B9000002A04BF8279002A07D1C279002A04BF43
:100BA000027A002A01D1427A12B10C88A34201D004
:100BB000002010BD0822891C801C00F0C7FF401EC9
:100BC0008041C00F10BD18B583B0044601F04DF947
:100BD00001AA6946072001F04DF990B1029800F191
:100BE00046012046FFF7C6FF38B9029800F12A01F6
:100BF0002046FFF7BFFF0028EAD0BDF8000004B090
:100C000010BD4FF6FF7004B010BD10B4DFF8A41192
:100C10000C880022A04206D102EB420001EB8000CA
:100C2000408810BC70478C890122A0421EBF02225E
:100C30000C8BA042F0D08C8C0322A0421EBF042259
:100C40000C8EA042E8D08C8F0522A0421FBF062246
:100C500001F148031C88A042DED09B8907229842FC
:100C6000DAD010BC4FF6FF70704781B0018821B90F
:100C700081788DF800100A0002D0012001B0704781
:100C8000C1788DF800100A00F7D101798DF80010B5
:100C90000A00F2D141798DF800100A00EDD1817976
:100CA0008DF800100A00E8D1C1798DF800100A0013
:100CB000E3D1017A8DF800100A00DED1407A8DF878
:100CC00000000100D9D1002001B0704738B53A4A80
:100CD0000D461178044600F0B8FE08B335494A883D
:100CE0000020A2421EBF0120CA89A24219D04A8B0D
:100CF0000220A2421EBF0320CA8CA24211D04A8EFB
:100D00000420A2421EBF0520CA8FA24209D031F89A
:100D10004A2F0620A2421EBF07208989A14200D087
:100D2000FF20FF2804D000EB4002224990000D5222
:100D300031BD70B50446FFF768FF0546204601F057
:100D4000A2FA4FF6FF76B542044630D07CBB1A4873
:100D50000178284600F079FE08B316494A88002039
:100D6000AA421EBF0120CA89AA4219D04A8B02207A
:100D7000AA421EBF0320CA8CAA4211D04A8E042068
:100D8000AA421EBF0520CA8FAA4209D031F84A2FB5
:100D90000620AA421EBF07208989A94200D0FF2051
:100DA000FF2804D000EB4002024990000E5220467A
:100DB00070BD0000FC8F002013950020F8B58CB0AA
:100DC0000D461446002100F10F026B4600F10F0C96
:100DD00012F8046903F8016B491C00F10F064F4239
:100DE000491CF75D03F8017BC1F1000E491C1CF89A
:100DF0000E6003F8016B4F4200F10F06491CF75DCE
:100E000003F8017B1029E3D30D2104A801F0FCFBBA
:100E100028788DF81F0068788DF81E00A8788DF866
:100E20001D00684643DF0DF12D0081782170407868
:100E300060709DF82D00A0700DB0F0BD30B5044677
:100E400083B02078400802280D4618BF002016D134
:100E50000322611C02A800F025FE0322211D684622
:100E600000F020FE01AA69462846FFF7A7FF0322EB
:100E700001A902A800F06AFE401E8041C00F03B025
:100E800030BDFEE7F8B5DFF86C660446002506F1D4
:100E9000100704E057F8041B204688476D1CF078C3
:100EA0008542F7DBF1BD000038B58AB00446142155
:100EB000684601F0A9FB6088ADF80400FFF7A5FEC5
:100EC000ADF802002178092900F2B980DFE801F0CD
:100ED00005163955616D8FB7ADB1002107228DF828
:100EE000002020798DF8091003918DF808009DF8F5
:100EF0000A1041F001018DF80A109DE007218DF8DC
:100F00000010002122798DF808208DF80910A068C2
:100F1000DFF8E01503909DF80A0040F001008DF81D
:100F20000A008868002800F08780A268904240F09C
:100F3000838000208860BDF80400C88000210391F0
:100F40007AE008218DF80010002122798DF8082020
:100F50008DF80910A068DFF89C150390E0680490F4
:100F60008868002868D0A268904265D1CA680020CD
:100F7000521E8860CA6003905EE007218DF8001061
:100F8000012122798DF808208DF8091000220392A2
:100F900052E008218DF80010012122798DF8091006
:100FA0008DF80820A168049146E0DFF84845A07854
:100FB000092100288DF800103ED04FF6FF75284615
:100FC00001F00AFBA84237D1284601F007FBA842EE
:100FD00032D10020A070142105A801F015FB0B21CF
:100FE0008DF81410ADF81850ADF8165019E00A201D
:100FF0008DF80000A1680291DFF8F8148878D8B164
:1010000000228A70142105A801F0FEFA0C208DF848
:1010100014004FF6FF71ADF81810ADF81610A06867
:10102000079005A8FFF72EFF06E005218DF80010B8
:1010300002E006228DF800206846FFF723FF0BB080
:1010400030BD0000F0B585B005461421684601F0BA
:10105000DBFA6988ADF8021001242A78521E0B2AA7
:1010600000F29D80DFE802F0A5061A3141505D696B
:10107000787E80978DF80040287950B900220026AC
:10108000DFF870746888397900F0EFFC79793246BE
:1010900017E001220128F2D10126F1E702218DF8A3
:1010A00000102879DFF84C643179002814BF012042
:1010B00002208DF808000122688800F0D6FC2A7909
:1010C0007179688800F0D1FC6AE003208DF8000097
:1010D000DFF820146888497900F0B7FC002814BFB5
:1010E000012002208DF8080014E0DFF808040179DF
:1010F000688800F0AAFC00285BD1022100228DF84C
:1011000000108DF808204BE0032100228DF800101C
:101110008DF80820A8798DF80C00A888ADF80A0091
:101120003EE007218DF80010AA88ADF804208DF864
:10113000081000228DF8092038E008218DF80010F1
:101140000721A8888DF808100022ADF804008DF85A
:101150000920A968049129E006218DF8001068682B
:1011600002901DE0052117E0DFF888034179032292
:101170008DF80020688800F068FC002814BF012169
:1011800002218DF8081041F2011200218DF80C1097
:10119000ADF80A2004E004218DF8001000E00024DE
:1011A0006888FFF771FCADF8040014B16846FFF7DA
:1011B00069FE05B0F0BD000018B585B004461421E5
:1011C000684601F021FA6088ADF80400FFF71DFDC4
:1011D000ADF802002278092A30D8DFE802F00505D0
:1011E0000F11131D1F3223270723002108228DF81A
:1011F00000308DF809108DF808201FE00D2112E055
:101200000E220CE007218DF80010002205218DF838
:1012100009208DF8081011E00F2104E010228DF84C
:1012200000200BE005218DF8001007E006228DF864
:101230000020A0680290A088ADF802006846FFF781
:1012400021FE06B010BD18B5044685B0217819B14D
:1012500001290AD006B010BDDFF898221078E8B155
:10126000E088FFF766FD06B010BDDFF8880241791F
:101270006088012200F0F9FB1421684601F0C4F9EE
:101280006088ADF802006088FFF7FEFBADF804004F
:1012900000218DF800106846FFF7F4FD06B010BD80
:1012A00010B5DFF850120446087850B12046FFF719
:1012B000ECFA204601F08EFB2046BDE8104000F01D
:1012C0007ABA10BD10B500F06AFD002826D100F0F2
:1012D0009FFF002822D101F04AFBF8B901F0C2FCBF
:1012E000E0B900F0DAF9C8B901F0E7FFB0B9FFF7EB
:1012F000B0FB98B9DFF8FC414FF6FF70E0800021A9
:101300001820A1602071607100F08AFB18282071FC
:1013100004D000F085FB1828607101D1032010BDB6
:10132000002001216070217010BDDFF8C821117804
:1013300009B908207047D178032901DB04207047E0
:1013400002EB8103491C1861D17000207047DFF85F
:10135000A4211178002918BF01F044BB0820704770
:10136000DFF890311A78002A18BF01F091BB0820ED
:10137000704701F085BBDFF87C110878002818BFA2
:1013800000F08BBA704700002DE9F14F0C46594927
:10139000087884B015461E4608B9082047E04FF685
:1013A000FF7001F019F900BF53A18346D1E9002372
:1013B0000020CDE901230090CDF808D001AA062134
:1013C000584601F00DF900274FF6FF7907284FF036
:1013D000FF3AC84614D1052029E00020009000986B
:1013E000B84224BF0746D94650453CBF8246D8463E
:1013F000584601F0F1F8834601AA062101F0F0F801
:101400000028ECD00528E8D04FF6FF7083450DD1B9
:101410000499002009B1A1F8009004B127600DB132
:10142000A5F800801EB1C6F800A000E0032005B0BA
:10143000BDE8F08F78B52F4D0646287887B010B9F3
:10144000082008B070BD00BF2DA0D0E90023CDE971
:101450000523687868B90023002205F10C01A81D56
:10146000FFF792FF002818BF052802D101206870FD
:1014700001E0687808B1A86808B1112436E0EA886C
:10148000E86896421FD1F0B11421684601F0BCF81B
:1014900007208DF8000000243046FFF7B6FBADF8BA
:1014A000020006219DF80A008DF8081000F0FE00E9
:1014B0008DF80A00ADF804608DF809400394684681
:1014C000FFF7E0FC12E0401CE86005F1080205A906
:1014D000304601F08DF8040008D0E9680020491E6C
:1014E000112CA860E9601CBF042C0324204608B01E
:1014F00070BD0000AC94002001000000000000005E
:1015000001000600B894002078B500254FF6FF7161
:10151000884283B0044620D001F013FF060008D0B3
:101520000B281ED011281AD043F2020188420DD098
:1015300019E002208DF800002046FFF7A5FAADF86B
:101540000200ADF804406846FFF736FEDFF894036A
:1015500041782A46204600F088FA04B070BD012583
:10156000F4E70320E6E709218DF800102046FFF795
:101570008BFAADF80200ADF804400296E3E778B5C7
:1015800083B0044601F09FFE002506000AD004281F
:1015900022D00C281ED011281AD043F20201884212
:1015A0000DD01BE001218DF80010ADF8044020465D
:1015B000FFF76AFAADF802006846FFF7FDFDDFF8B5
:1015C000240301782A46204600F04FFA04B070BD8B
:1015D0000125F4E70721E6E70821E4E709218DF872
:1015E00000102046FFF750FAADF80200ADF80440B5
:1015F0000296E1E718B5044683B06088ADF80200B2
:10160000217821B102291AD00ED304B010BD0022D6
:101610008DF800206846FFF7CFFD6088FFF7F5FAE8
:10162000FFF772FF04B010BD01208DF8000068467E
:10163000A188ADF80410FFF7BFFD04B010BD2079FC
:1016400068B16088FFF7E1FA4FF6FF72904206D06A
:10165000A4498978012200F008FA00F03BF804B0B0
:1016600010BD10B50446207801280ED16088FFF720
:101670004BFF608801F0A4FE38B19A4881786088F9
:10168000BDE81040012200F0F0B910BD0178072933
:1016900004BF4088FFF773BF704710B5914C00F04E
:1016A000BFF9207000F0BCF9607000F0B9F9A070CB
:1016B00000F0B6F92178E07018291CBF617818296C
:1016C00004D0A178182918BF182801D1032010BD13
:1016D000002010BD2DE9F043824DA8788DB000F0B8
:1016E000D5F9002842D008A800F095F908AA92E898
:1016F000D81003A9180081E8D81037D00DF11009CF
:101700001C46A978B9F8000000F09FF950B3E978B9
:10171000B9F8000000F099F920BBB9F80060304634
:1017200001F05CFE012701004FF0000828D00628D8
:1017300018BF08281DD011281CBF43F20202904296
:1017400006D043F20142904229D13046FFF7DCFE39
:10175000A9783A46304600F088F9E97842463046A2
:1017600000F083F9641E09F10209CAD10DB0BDE889
:10177000F0833046FFF788F901F046FE0027E7E7DF
:1017800005208DF80000B8463046FFF77DF9ADF82A
:101790000200ADF804606846FFF70EFDD8E70922A5
:1017A00002908DF80020ADF804603046FFF76CF928
:1017B000ADF80200EFE7F8B5044692B02188494D34
:1017C000502920D0522902D0542904D029E0A088E1
:1017D000FFF79AFE25E006218DF80010A088FFF79C
:1017E00053F9ADF80200A088ADF80400BDF802007E
:1017F00001F00AFEA978A088002200F036F96846B8
:10180000FFF7DAFC0DE0207B012804BFA07A012855
:1018100007D1208942F60211884204BFA088FFF751
:10182000AEFE687800F032F9B8B10DA800F0F3F818
:101830000DAA92E8D81008A9180081E8D8100CD099
:1018400009AE1C466978308800F0FFF810B1308886
:10185000FFF75AFEB61C641EF4D1287800F016F982
:10186000B8B108A800F0D7F808AA92E8D81003A9E0
:10187000180081E8D8100CD004AE1C4629783088B6
:1018800000F0E3F810B13088FFF779FEB61C641E53
:10189000F4D1FFF71FFF13B0F0BDF0B585B001F034
:1018A00085FD684600F0B7F800240E4D4FF6FF7630
:1018B0000FE0684600EB44018F883846FFF7E4F8F4
:1018C000B04204D1A9780122384600F0CEF8641C59
:1018D000A4B200988442ECD305B0BDE8F040F9E62C
:1018E0000000000072950020F0B505468BB02888F6
:1018F000102805D011284DD01A2852D00BB0F0BDB9
:10190000674E727D337D23EA0202311D06A801F085
:1019100079FE06AA92E8985001A9180081E898502B
:101920000DD002AF1C46002000901D2237F8023B6C
:1019300006F11401301D01F0DBFD641EF3D1307D92
:10194000AC88C043C0B201F075FD4FF6FF7188420C
:1019500016D0321D012322F81040224606F115014F
:10196000301D01F083FD0123224606F11401301DD4
:1019700001F07CFDE87B02280CBF0123002304E07A
:10198000042001F06EFE0BB0F0BDAA8806F116012E
:10199000301D1DE04248AA8800F115010023001DFA
:1019A00016E0287A3E4CAA8800090228ACBF012321
:1019B000002304F11701201D01F058FD287AAA88A0
:1019C00000090228CCBF0123002304F11801201DC7
:1019D00001F04CFD0BB0F0BD70B5314E317D0446C9
:1019E0002246301D01F0CEFD002540B1B17D2246DA
:1019F000301D01F0C7FD002814BF0225012528462F
:101A000070BD02462648C17D001D01F0BBBD0246E7
:101A10002348017EF8E722490A7D091D01F0F2BD45
:101A20001F490A68002022FA00F3DB0707D5401C93
:101A30005FFA80FCBCF1180FF5DB1820704701231A
:101A400083401A430A60C0B2704718B40246144873
:101A50000368CB40DC0705D50144001D497E18BC56
:101A600001F090BD12BC0020704730B40C4C1346FE
:101A70002268CA40D50707D50246601800F119014F
:101A8000201D30BC01F0F2BC30BC704704490A682C
:101A9000C240D30702D50844407E704700207047FB
:101AA000D892002062B38B0708D0521E11F8013B78
:101AB00000F8013B00F024808B07F6D1830740F04B
:101AC000208000BF103A07D330B4B1E83810103A84
:101AD000A0E83810F9D230BC530724BFB1E8081091
:101AE000A0E8081044BF51F8043B40F8043BD2077B
:101AF00024BF31F8022B20F8022B44BF0B7803706F
:101B00007047121F17D35B0009D151F8043B20F82E
:101B1000023B1B0C121F20F8023BF6D20BE051F8DF
:101B2000043B00F8013B1B0A20F8023B1B0C121F70
:101B300000F8013BF3D238BF121D521E24BF11F82A
:101B4000013B00F8013BF8D87047FEE70300002096
:101B500013F0030F09D0521E22BF13F8010B11F826
:101B600001CBB0EB0C00F3D0704711F0030F14D190
:101B7000121F22BF53F8040B51F804CB6045F7D075
:101B8000121D0AD200BA9CFA8CFCB0EB0C0038BFD4
:101B90006FF0000088BF01207047521E22BF13F86B
:101BA000010B11F801CBB0EB0C00F6D0521C08BFB2
:101BB00010467047072818BF012807D0082818BF0B
:101BC000052803D0062818BF042801D1012070473A
:101BD0000020704778B589B00020CDE900004FF6AD
:101BE000FF75284603E0204601F07CFD204601F009
:101BF000D3FD0446AC4226D0A4F580466A4602A92D
:101C0000B0B2FEF72BFB0A28EDD0AD4D6878D0B905
:101C100001216970B0B2FEF7ADFA082803D10120A6
:101C200028700AB070BD70B109228DF8142000210F
:101C3000FF22089069708DF818200791ADF81640C2
:101C400005A800F049FA0AB070BD7CB504460D46FF
:101C500016462846FFF7AEFF0021CDE90011A4F596
:101C60008040A5F580416B46324689B280B2FEF7CE
:101C7000E7FA00B1052076BD10B5014684B048688A
:101C8000421E9241D20F03920A78521E042A32D881
:101C9000DFE802F003033A5981008889B0F5404F2C
:101CA00003DB4FF6FF74A04207D1CA89B2F5404F5B
:101CB00021DB4FF6FF74A2421DD000F58040ADF845
:101CC0000200C8898DF804000A784868012A06D104
:101CD00000280CBF002203228DF8002005E0002818
:101CE0000CBF012304238DF8003003908868029014
:101CF000684600F0F1F97249087818B100220A70BC
:101D0000FFF768FF04B010BD8889B0F5404F03DBD2
:101D10004FF6FF74A04207D1CA89B2F5404FEADB03
:101D20004FF6FF74A242E6D000F58040ADF8020005
:101D3000C8898DF80400486800280CBF02200520DF
:101D40008DF80000D2E78A89B2F5404FD3DB4FF619
:101D5000FF74A242CFD0C8890028CCD102F58042BE
:101D6000ADF80220FF24CB898DF804308DF80440B3
:101D7000486830B906218DF8001090B201F0B2FC2D
:101D800002E007208DF8000000214D4801704170ED
:101D9000FFF720FFACE708208DF80000A8E730B57A
:101DA00087B04848FEF752F810B1032007B030BDA5
:101DB000FEF75AF810B1042007B030BD01F052FC14
:101DC0000021CDE900114CF207040DE002A904A89E
:101DD000FEF73EF90298858804A8FEF759F905F543
:101DE0008045A8B201F06DFC6A4604A92046FEF7C2
:101DF0002FFA0028EAD0002007B030BDF0B5B0F5CA
:101E0000807F85B006460F4615461C4603DA3846E5
:101E1000FFF7D0FE10B9072005B0F0BD02AA394681
:101E20003046FFF712FF20B9694602A8FEF710F905
:101E300010B1052005B0F0BDAF70009842882A802F
:101E40005CB120689200824204D301996868FFF770
:101E500029FE04E0042005B0F0BD0198686002A8E6
:101E6000FEF716F9002005B0F0BD17480021C0E9C3
:101E70000011704778B5054685B00C461646A5F5A5
:101E80008040114A02A980B2FEF7E2F920B9694602
:101E900002A8FEF7DDF810B1002006B070BDB570E5
:101EA000009841883180019870600099888800F519
:101EB0008040208002A8FEF7EBF8012006B070BD3C
:101EC00011950020791C02002495002038B50446A5
:101ED0000D46A078FFF76EFE08B9072032BD2188B5
:101EE0002846FEF7F5F838B1072802D0092803D0B4
:101EF00001E0042032BD032032BD01B56846FEF783
:101F0000FFF800B1032002BD76B5B0F5807F88B040
:101F100005460E461C4603DAB078FFF74BFE10B9B3
:101F200007200AB070BD70680390A5F58042318823
:101F3000ADF81010ADF8002003AAB0780192A0F51A
:101F40008041ADF8021005AA0121ADF8081028461D
:101F5000B178FFF77AFE05280CD1099820B96946B7
:101F600005A8FEF7F5F80CE009AA694605A8FEF7F2
:101F7000F1F806E009A8FEF7C3F8694605A8FEF7E0
:101F8000F0F830B107280FD0082818BF0E2808D065
:101F90000DE01CB1214605A8FEF768F900200AB043
:101FA00070BD11200AB070BD04200AB070BD0320BE
:101FB0000AB070BD4FF6FF7001F083BB80B5B0F57D
:101FC000807F01DB072002BD01F07DFBFFF702FEF1
:101FD000002002BD01F098BB01F0B7BB01F0DCBBF3
:101FE0004FF6FF7101800022FF2181700174C260F1
:101FF00042608260417C01F0F80141747047F0B4A6
:10200000DFF8C845258802460023002095421EBF00
:102010000120A58A954219D0258D022095421EBF28
:102020000320A58F954211D004F1500504202E887D
:1020300096421EBF0520AE8A964207D02E8D0620FE
:1020400096421EBF0720AD8F954204D100EB80075A
:1020500004EB87000DE00020F0BC7047401C08280E
:10206000F9D235F8146B9642F8D100EB800504EBF9
:10207000850000281CBF85788D42EDD05B1C18467A
:1020800000EB800704EB8705E9E770B504460025FF
:10209000DFF83C6506E0217C6918C9B2304601F0E2
:1020A0000BFC6D1CE0688542F5D32046BDE870400E
:1020B00096E710B50446FEF7F7FE2046FEF793FCC0
:1020C000204600F03EFC204600F029FD2046BDE8F9
:1020D000104001F0CDB80000F8B584B00546684660
:1020E000002100220023002680E84E006F88ADF812
:1020F0000270002428798DF8040029796888FFF798
:102100007EFF297809294FD8DFE801F00505341B47
:102110001B363C3E444C70B1417CCA070BD5FFF7DF
:10212000B4FF00208DF800002978012908BF0120A4
:102130008DF8080032E001208DF80000A9680291B6
:102140002CE088B18168AA6891420DD1417CCA0710
:102150000AD5DFF8802413685B1C01F0FE011360D0
:1021600041F0040141741FE002208DF80000E9688D
:10217000039113E003200FE004208DF80000E968CC
:1021800002910BE0052007E006208DF80000E968C9
:10219000029103E0012407208DF800006846FFF754
:1021A00088FF01E0E8680290DFF828140868A0B111
:1021B000DFF8185405F111073878410702D4800779
:1021C00007D534B117F80F1C37F8110C00F09AF945
:1021D00028B9761C1437082EEED305B0F0BD06EBF7
:1021E00086018900AB1C6A5AADF802200428595CAC
:1021F0008DF8041003D108208DF8000003E00922B7
:102200008DF8002002906846FFF753FF05B0F0BD3F
:10221000B8B5DFF8B84383B0211D0420FF224FF684
:10222000FF7300270D1F2B80AA700A738F604D7BF0
:1022300005F0F8054D730F604F600B828A7481F8CA
:102240002020CF614F618F6191F8215005F0F80592
:1022500081F821502831401EE4D1502008210290FD
:1022600001910125009504F1A0034FF4207204F1BF
:10227000B40104F1A40001F0A9FA00B1032004B0F4
:10228000B0BDFFF797BEF8B5DFF840532988064682
:10229000002400270020B1421EBF0120A98AB142BC
:1022A00019D0298D0220B1421EBF0320A98FB1424F
:1022B00011D005F1500104200A88B2421EBF05204A
:1022C0008A8AB24207D00A8D0620B2421EBF07207A
:1022D000898FB14220D100EB800305EB830003E03E
:1022E00001EB810205EB8200A8B18178304600F055
:1022F000BDF800281CBF052803247F1C394601EBCC
:10230000810005EB800004E030F8142BB242E7D0E6
:10231000491C0729F8D93CB93046FFF74FFE18B1E0
:1023200007280CBF072403242046F2BD0023FFF733
:1023300065BD8170426003EB83010905090CC91C6E
:102340008910018070478178012918BF062907D0BC
:10235000072902D0082905D070471422028070474F
:10236000012103E0426891880931890801807047A2
:102370002DE9F84F81465FEA030808BF0E2073D0AD
:102380000E46072E18BF082E06D1150004D0092DC1
:1023900002D2FFF71FFE10B90720BDE8F28F3146C9
:1023A0004846FFF72CFE00270400DFF824A214D0D3
:1023B000E068A84229D2BB4607E0217C5944C9B253
:1023C000504601F079FA0BF1010BE1685FFA8BF0EE
:1023D0008842F2D32046FFF703FEFF214FF6FF703D
:1023E000FFF70DFE040021D0A4F80090A670207C19
:1023F000FF281FD12946504601F009FAFF28207412
:1024000017D12046FFF7ECFD10E08542EFD2A94638
:10241000E1685FFA89F08842E9D2217C4944C9B277
:10242000504601F049FA09F10109F1E71120BDE830
:10243000F28F0127217CE560504601F027FA10B9A0
:102440000320BDE8F28F0246ABB231464046FFF7AB
:1024500070FF47B1082E06D1B8F800008000811F38
:10246000D8F8040081800020BDE8F28F38B5FFF76E
:10247000C6FD0025040001D1052032BD606820B1F1
:10248000FFF73BFD050018BF03252046FFF7FDFDC4
:10249000284632BDFEB507291CBF082907200D4676
:1024A0002DD1FFF7ACFD0026040008BF052026D083
:1024B000606818BB217C464801F0E8F94EA2D2E9D9
:1024C0000067CDE900678DF80250A0B1E168019086
:1024D00089B201EB81000005000CC01C8010ADF832
:1024E00000006846FFF72FFF211D6846FFF7EEFC4E
:1024F0000646092E02D1032003B0F0BD304603B0DA
:10250000F0BD00007CB50E46072E18BF082E05460C
:1025100001D0072076BD00BF39A1D1E90023CDE964
:1025200000238DF802603146FFF769FD040001D1F8
:10253000052076BD607CC10736D4217C244801F09B
:10254000A5F9002840D0E268019092B202EB820027
:102550000005000CC01C8010ADF800008DF8026072
:102560006846FFF7F0FE626804F1080369462846F2
:10257000FFF7CAFC617C01F00602062A03D1154A66
:1025800013685B1E136020B901F0F90141F00101ED
:1025900016E011280AD10F480268521C01F0FD0113
:1025A000026041F004016174002076BD042809D165
:1025B000084A13685B1C01F0FB01136041F0020143
:1025C000617476BD072800D0032076BD788900208D
:1025D0001C8A002078950020FFF7FEBCFFF7FEBCA8
:1025E00080B513889B0000936B46FFF707FC02BD84
:1025F00013460022FFF788BC000000000000000026
:102600000000000000000000002201F06BB9FEE7AE
:10261000FEF718BD70B504461046002200250429B7
:1026200003D0112903D009BB02E0012200E00125FB
:10263000DFF8D46478B1B17B2046FFF716FA717BDE
:102640002A462046FFF711FAB17A00222046FFF70A
:102650000CFA002204E0B17A2046FFF706FA2A4677
:10266000717A2046BDE87040FFF7FFB970BD0029C0
:1026700000D1704730B5112983B018D06A460023C5
:102680000024002582E8380001910D29ADF80200F0
:1026900008BF0B2102D0042903D10A218DF80010B4
:1026A00002E009228DF800206846FFF7B1FF03B071
:1026B00030BD2DE9F843DFF850548046287A0C46A7
:1026C000204391461E4608BF052038D0200014BF85
:1026D00000212946404600F071FB0746002239469A
:1026E0004046FFF797FF1EB139464046FFF7BFFF50
:1026F00027B3042F16D0082F18BF0D2F1ED0112F6F
:1027000004D043F202018F4218D016E0297B224602
:102710004046FFF7AAF9E97A4A464046FFF7A5F98D
:1027200000270BE0297B22464046FFF79EF9E97A15
:102730004A464046FFF799F900E003273846BDE8CE
:10274000F28330B583B00446FFF746F90128DFF87D
:10275000B8531AD12046FEF797F94FF6FF71884219
:1027600013D0E97B01222046FFF77FF9694600205C
:102770000022002381E80D000C228DF80020ADF826
:1027800002406846FFF744FF04E0E97B0022204650
:10279000FFF76BF9287A38B1E97B2046FFF755F946
:1027A00010B92A69294601E000220021204600F0E4
:1027B0007AFA0546012229462046FFF72BFF2946D3
:1027C0002046FFF754FF03B030BD18B5044683B070
:1027D000217831B1491E09D0491E072924D904B0F6
:1027E00010BD6088FFF7ADFF04B010BDDFF81823FF
:1027F000107A98B1237910785B1E9B41DB4300F07F
:102800000102B2EBD37F09D362794008521E924194
:10281000D24300F00100B0EBD27F00D201216088EA
:1028200001230022FFF745FF20788DF80000618822
:10283000ADF80210D4E90101CDE901016846FFF7C6
:10284000E7FE04B010BD2DE9F84F8AB08046FFF7CF
:102850001DF9002852D005A8FFF7DDF805AA92E877
:10286000F8006946180081E8F80047D00DF1040A25
:102870001F46DFF89492BAF800004146FFF7E5F8EA
:10288000002837D099F80B10BAF80000FFF7DDF8F0
:10289000044699F80C10BAF80000FFF7D6F8054680
:1028A00099F80800BAF80060284323D0280022468F
:1028B00014BF00214946304600F080FA83460022CA
:1028C00059463046FFF7A6FE59463046FFF7CFFE81
:1028D000BBF1040F18BFBBF1110F0BD199F80C100D
:1028E0002A463046FFF7C1F899F80B1022463046C9
:1028F000FFF7BBF87F1E0AF1020ABCD10BB0BDE89E
:10290000F08FF8B58AB00546FFF7C0F8B8B105A852
:10291000FFF781F805AA92E8D8106946180081E807
:10292000D8100CD001AE1C4630882946FFF78DF830
:1029300010B13088FFF705FFB61C641EF4D10BB050
:10294000F0BD10B50078062808D9C01F0ED16E4C16
:10295000A07BFFF7D6FFA07AFFF775FF6A4C607B7C
:10296000FFF7CFFF607ABDE810406CE710BD10B5EF
:10297000654C607A182802D1FFF752F86072A07A8D
:10298000182802D1FFF74CF8A072E07A182802D17B
:10299000FFF746F8E072207B182802D1FFF740F8D5
:1029A0002073607B182802D1FFF73AF86073A07B90
:1029B000182802D1FFF734F8A073E07B182802D161
:1029C000FFF72EF8E073E07B182801D1032010BD3B
:1029D000002010BD80B500F0DFFA4B48407ABDE81A
:1029E000024030E710B5010003D1474900200872CA
:1029F00010BD0878820701D4030630D4C0F302105A
:102A000004282CDC087800F0F200322827D048781F
:102A10008A78824223D3072821DB112A1FDAC8785B
:102A2000C0F38000002802BF0879C0F380000028AE
:102A300015D1C878C0F3C000002802BF0879C0F3E0
:102A4000C00000280BD10A78C878D30700F0030033
:102A500007D4002804BF087910F0030F07D007201F
:102A600010BD002804BF087910F0030FF7D0264CE2
:102A700020460522FFF716F801202072002010BD25
:102A800009784A1E2049C97B9241D20FFEF7EDBF5B
:102A9000F8B51D4E0446307A0D4608B9052731E0D9
:102AA0002A463146204600F089F907460022394679
:102AB0002046FFF7AFFD380024D0042F0AD0082F9E
:102AC00018BF0D2F1ED0112F0FD043F202018F42DD
:102AD00018D016E0317B00222046FEF7C6FFF17ABF
:102AE0002A462046FEF7C1FF0CE0317B002220463B
:102AF000FEF7BBFFF17A2A462046FEF7B6FF002715
:102B000000E003273846F2BD0C80002010B50446D3
:102B1000FFF75BFE2046BDE81040FEF7B7BD78B575
:102B2000044683B02078002804BF2079072811D1FB
:102B30000FF2CC6292E86800694681E8680060881C
:102B4000FEF763F8ADF802006088ADF8040068464F
:102B5000FFF7DCFF04B070BD2DE9F843DFF88C66A9
:102B6000089C89463178054617469846FEF77DFF52
:102B700087B1717842462846FEF777FFB178224642
:102B80002846FEF772FF5CB149462846BDE8F4438B
:102B9000FEF79CB824B14846BDE8F243FEF7C9B839
:102BA000BDE8F1832DE9F041DFF840560F46297862
:102BB00086B004461646FEF748FF00284FD0204650
:102BC000FDF762FF4FF6FF718842804647D0697873
:102BD0002046FEF73AFF68B30FF23C6191E80C40E3
:102BE00003A880E80C40A978ADF80E40ADF810704D
:102BF0008DF812602046FEF728FF18B14046FEF718
:102C000098F810E007214046FFF730FC58B105283E
:102C100009D109218DF80010ADF80240052101917C
:102C20006846FFF773FF297800222046FEF71DFF54
:102C300003A812E00FF2EC5191E80C40684680E8DE
:102C40000C402978ADF80240ADF804708DF80660AC
:102C500000222046FEF709FF6846FFF757FF06B03F
:102C6000BDE8F08110B5DFF884452078182802D13E
:102C7000FEF7D6FE20706078182802D1FEF7D0FE4D
:102C80006070A078182802D1FEF7CAFEA0702078E4
:102C900018281FBF60781828A078182801D10320B1
:102CA00010BD002010BD2DE9F04F8BB007460D463A
:102CB0009046FEF791FE0646202103A84FF6FF74CA
:102CC0004FF00009FFF7A0FCA346CA4616B943F22D
:102CD000020070E015B94FF0850936E02878C10789
:102CE00033D53846FDF7D0FEA042834606D1FFF724
:102CF000C8FAA042834636D04FF0010A6B46012243
:102D000007215846FFF734FB04001DD101985021DC
:102D1000FDF7B4FC01980670CDF818803846019A8A
:102D200002F13401039102F11803DFF8C4140A918F
:102D30000793541C089402F11101FDF7DDFE0721F1
:102D40005846FFF7A7FB044674B9022E03AB15D112
:102D50000022494638467FDF04462CB9B9F1850F79
:102D600002D0012201E003240022CDF800A00123BB
:102D700059463846FFF7F0FE20461CE02A464946F1
:102D800038467FDF002D0446E7D0002CE5D10FF256
:102D90006443287893E860106A46C10782E86010AF
:102DA0004CBF012102218DF80410ADF80270684675
:102DB000FFF7ACFED2E70BB0BDE8F08F2DE9F84F7E
:102DC00084B007460D469346FEF706FE012800F044
:102DD000D980022840F0DA8025B9002138467EDF0C
:102DE0000446CDE02878C1074CBF4FF001084FF0F2
:102DF00002083846FDF748FE4FF6FF74A0428246AF
:102E000067D06A460721FFF791FA00260400B14611
:102E100009D1019890F8441000F1180611F0010949
:102E200018BF00F13406BBF1000F08BF002C15D10C
:102E3000C6B1B9F1000F04D106F11200FDF715FF7C
:102E400080B1324606F11201384685DF044600257E
:102E5000661EB6414FF00008F60F26E0002C18BFA2
:102E6000052C20D12878C1070DD502AB01220721FE
:102E70005046FFF77DFA040004D107215046FFF7C2
:102E800009FB04463CB9294638467EDF044614B99E
:102E90000125012609E007215046FFF7E7FA00283F
:102EA0001CBF0528032401250026DFF8409399F86C
:102EB000001032463846FEF7D8FD002E52D099F861
:102EC00001102A463846FEF7D0FD99F8021000227C
:102ED00045E02878C1072DD5FFF7D3F9A042064673
:102EE00002D1032400201DE001AB01220721FFF7DE
:102EF0003FFA040004D107213046FFF7CBFA04461D
:102F00003CB9294638467EDF044614B90120012227
:102F100009E007213046FFF7A9FA00281CBF052861
:102F20000324012000220090012331463846FFF798
:102F300013FE17E0294638467EDF0446661EAB4D79
:102F40002978B641F60F32463846FEF78EFD4EB16F
:102F5000697801223846FEF788FDA97800223846B4
:102F6000FEF783FD64B900BFA2A191E82C0068467A
:102F700080E82C00ADF802708DF80480FFF7C6FDE4
:102F8000204605E0294638467EDF01E043F2020094
:102F900005B0BDE8F08F00002DE9F843054688B084
:102FA000288811280CD0132814D014281CD01928D4
:102FB00000F091801A2800F0E2801E2876D011E1FE
:102FC000297AA8883D290CBF41F23D014FF4885170
:102FD0000022D1E0694600200022002381E80D0094
:102FE000AC88ADF80240FAE005F11000FDF7EBFD0A
:102FF000A98800244FF6FF76ADF80210B04204BF56
:10300000A888FDF741FDB04212D003AA0721FFF7BF
:103010008DF968B9049800F13406317CC80706D4EC
:1030200005F1100106F11200FDF7A4FD00B13446D0
:10303000A88800230022214686DF20B109228DF8CE
:1030400000200190CBE0694E7CB906208DF800008D
:1030500041F20601ADF804108DF806206846FFF72E
:1030600055FD3178A88800221DE000BF61A3A98822
:1030700093E8901005AA05A882E89010ADF8161004
:1030800000218DF81810FFF741FDAC88317801223E
:103090002046FEF7EAFC717800222046FEF7E5FCA8
:1030A000B17800222046FEF7E0FC9BE057A191E8B2
:1030B0001C00684680E81C00AE88ADF80260287AE3
:1030C00000F001008DF80400287A400800F00100AB
:1030D0008DF8050083E0297AA888002949D1FEF7F8
:1030E0007BFC8146A888DFF80481FDF7CDFC07460C
:1030F0002C7B6E7B98F80010A8880022FEF7B5FCA8
:10310000B9F1000F6ED0687AC0F3800088B1072152
:103110003846FFF7F7F9A8B108218DF80010AA8802
:103120000290ADF80220ADF804706846FFF7EEFC9F
:1031300008E098F80210A888FEF787FC10B138461E
:10314000FDF7F7FD03208DF80000A988ADF8021007
:10315000687A800800F001008DF80400A97A8DF8E3
:103160000640890801F001018DF805108DF807600F
:1031700035E06A7A02F00302FFF714FD32E0A88816
:103180001A4CFEF73EFCA8B16178A888FEF75DFCFA
:1031900020B92178A8880022FEF767FCA988ADF83D
:1031A000021005228DF80020A888FEF730FC8DF86B
:1031B000040014E0B5F804001AA292E86800694619
:1031C000012281E868008DF80620ADF8020041F286
:1031D00006072178ADF804700022FEF746FC684629
:1031E000FFF794FC09B0BDE8F08300005085002093
:1031F00024920020020000000000000000000000F7
:1032000007000000000000000000000001000000B6
:1032100000000000000000000400000000000000AA
:103220000000000006000000000000000000000098
:103230003EB500BF7BA00022D0E90045CDE90045A6
:1032400069466F4C2088FFF7D3F901464FF6FF75AA
:1032500007E0FFF7C1F9208000226946FFF7C8F9AF
:1032600001462088A84218BF1129F2D103B030BD11
:1032700010B5044684B02078012804BF20790128C5
:1032800011D1608802AA0121FFF750F858B9022035
:103290008DF8000001226188ADF802108DF804203D
:1032A0006846FEF7A7F9564801884FF6FF7291422B
:1032B00018BFFFF7BDFF04B010BD51494FF6FF70B6
:1032C0000880002070472DE9FC410546FDF7DCFB36
:1032D0004FF6FF718046884208BF43F2020026D0B5
:1032E00001276B46BAB208214046FFF741F8002695
:1032F00004467F1C0CBB019803210160021D811D47
:1033000003232846AADF04000BD00C2C11D1012680
:1033100008214046FFF7AAF800B10324002EE0D1AF
:1033200004E008214046FFF7EDF804462046BDE8DA
:10333000F681052CECD10024EAE7072CF6D10C2409
:10334000F4E72DE9FC418046FDF79EFB00260027AF
:10335000032401254FF6FF72904208D06A460821E7
:10336000FEF7E4FF18B9019887880468861D314686
:103370003A46234606E0002908BF002A0CD0002167
:10338000002203234046A9DF042803D0082806D1E1
:10339000002000E0112005B90B20BDE8F6810B28C4
:1033A000F9D100259807E6D50123EBE780B54FF664
:1033B000FF70FFF711F912490880BDE8014037E7B7
:1033C000E0B5FDF761FB6A460121FEF7AFFF00287B
:1033D00012BF00200198007803B000BD78B4034606
:1033E00043F20304074D4FF6FF7202E02E88761C6D
:1033F0002E8018462988A7DFA042F7D072BC7047FC
:103400007695002088950020E0B500BF07A1D1E99E
:103410000023CDE9002369460022FFF7E9F803B055
:1034200000BD000001000100F08002000100010069
:10343000F480020001460020CA0716D401208A0742
:1034400013D402204A0710D403200A070DD4042005
:10345000CA060AD405208A0607D406204A0604D4E0
:103460000720090658BF4FF6FF707047002800D1AB
:10347000704738B4002939D00588ADF800500024D1
:1034800095421FBF01244588ADF80050954223D0D6
:103490008588ADF80050022495421FBF0324C588DB
:1034A000ADF80050954217D00589ADF800500424BE
:1034B00095421FBF05244589ADF8005095420BD0B9
:1034C0008589ADF80050062495421FBF0724C089A6
:1034D000ADF80000904209D1012000FA04F4087808
:1034E000002B14BF044320EA04040C7031BC704765
:1034F000002800D170473EB4002918BF002A3ED0F2
:1035000000240588ADF800509D420ED1012000FA3C
:1035100004F40598E3430D78002814BF25431D40AB
:10352000521E01F8015BF6D129E04588ADF8005044
:1035300001249D421FBF02248588ADF800509D42A2
:10354000E4D0C588ADF8005003249D421FBF042479
:103550000589ADF800509D42D8D04589ADF800509E
:1035600005249D421FBF06248589ADF800509D4269
:10357000CCD00724C089ADF800009842C6D003B073
:1035800030BC704718B4002839D000230488ADF847
:103590000040944209D1012000FA03F31940481E6B
:1035A000804112BCC043C00F70474488ADF8004052
:1035B000012394421FBF02238488ADF80040944247
:1035C000E9D0C488ADF80040032394421FBF042310
:1035D0000489ADF800409442DDD04489ADF8004044
:1035E000052394421FBF06238489ADF8004094420E
:1035F000D1D00723C089ADF800009042CBD012BCD7
:1036000000207047F0B485B00023009301B300247C
:10361000012303FA04F5D6B22E4207D00D88009F8D
:1036200001AE26F81750009D6D1C0095641C03FA2E
:1036300004F5D6B22E4207D04D88009F01AE26F881
:103640001750009D6D1C0095641C091D082CE0D3CB
:10365000694691E87C0080E87C0005B0F0BC7047CA
:103660007047704710B5574C40212046FEF7CCFFFD
:103670004FF48071204600F04EF904F12000BDE8BF
:1036800010404FF4807100F046B970B504464FF613
:10369000FF75AC4208462E4609D14FF4807100F008
:1036A0007DF9B0F5807F064609D12E4607E0214618
:1036B000B1F5807F03DA00F034F900B126463046D8
:1036C00070BD4049E1E710B54FF6FF7188420446EE
:1036D00006D03D49FFF7D9FFA04201D1012010BD1E
:1036E000002010BD38B5B0F5807F04460BDA354DAB
:1036F0002146284600F035F9214605F12000BDE8B5
:10370000344000F02EB931BD0146B0F5807FBCBF1A
:103710002C4800F071B90020704770B54FF6FF7665
:10372000B0420D4608BF002404D0441CA0B2B0F53E
:10373000807F08DAA1B2284600F05EF908B1A0B295
:1037400070BD641CF2E7304670BD70B51D4C21465B
:10375000FFF7E3FF05464FF6FF76A8B2B04219D057
:10376000B0F5807F16DAA9B204F1200000F044F928
:1037700080B16D1CA8B2B0F5807F0ADAA9B22046EC
:1037800000F03AF90028E8D16D1CA8B2B0F5807FAE
:10379000F4DB3546A8B270BD38B54FF6FF75A842C8
:1037A00008BF002404D0441CA0B2B0F5807F06DA24
:1037B000A1B2054800F020F910B9641CF4E72C46CA
:1037C000A0B232BDE49100200492002070B5002820
:1037D00018BF002919D0C3B1069D059C05FB04F64E
:1037E000B24222BF049AE61DB2EBD60F0DD3002CD5
:1037F00018BF002D09D0016043608460C560A1B28C
:10380000406800F088F8002070BD072070BD2DE9E9
:10381000F04104001CBF20680028884633D060684F
:1038200088B3FF2700261BE0FF2F17D0B7423D4685
:1038300013DA206800281FBF60680028E9B2FF295A
:1038400007D000F0D9F8EFB218B16068394600F03F
:1038500088F86D1CE8B2B042EBDBFF27761CF6B2AD
:10386000A06886420FD26068314600F05AF80028FE
:10387000DAD0FF2F08BF3746F01B401C4045EDD182
:103880003846BDE8F081FF20BDE8F08138B504007E
:103890001CBF206800280D460CD06068002818BFA7
:1038A000FF2907D000F0A8F820B1E068216845435F
:1038B000481932BD002032BD38B504001CBF206855
:1038C00000280D460DD06068002818BFFF2908D0D9
:1038D00000F092F828B160682946BDE8344000F055
:1038E00040B831BD00B500BF13009646944610396C
:1038F00028BFA0E80C50FAD85FEA417C28BF0CC072
:1039000048BF40F8042BC90728BF20F8022B48BF46
:1039100000F8012B00BD18B1C91DC910FCF7AEBEDF
:103920007047002800D170477CB500EBD10501221B
:1039300001F00704287802FA04F4002620420ED190
:103940008DF80060684600F063F82878204202D1C4
:1039500004432C7001269DF8000000F075F83046F5
:1039600076BD7CB504464D052D0E012001F00706FD
:1039700000FA06F6002C1CBF605D30420DD000231B
:103980008DF80030684600F043F8615D21EA0606D4
:1039900066559DF8000000F057F873BD2DE9F84317
:1039A0005FEA000889461CBF00265FEA09001DD0B7
:1039B000012106F0070708EBE60401FA07F7217872
:1039C000002539420FD18DF80050684600F020F8EC
:1039D0002178394202D10F43277001259DF800005C
:1039E00000F032F82DB9761C4E45E1DB4846BDE8C3
:1039F000F283B0B2BDE8F28338B1CA0801F0070122
:103A0000805CC84000F00100704701207047FEE76D
:103A100030B4EFF3108272B6154B996871B9012476
:103A20009C601449144C25680D401D60216061683C
:103A300059604FF0FF336360002100E00121017005
:103A400002B962B630BC7047094A916871B168B971
:103A5000EFF3108072B6094913680B60D2F804C006
:103A6000C1F804C00021916000B962B6704700003F
:103A7000F0940020FC06FFBC80E100E000E100E0E3
:103A800010B5DFF804154FF400300860BFF34F8F16
:103A9000BFF36F8F4FF48031DFF8F004DFF8F044AC
:103AA000016401602F200121216000F087FA0121CB
:103AB00061600020DFF8DC4420612F2000F07EFAF6
:103AC0000020A07210BD30B4DFF8C8144A788D7899
:103AD000531CDCB2AC4208BF00230D78DCB2AC4210
:103AE00008BF002005D00370486802EB420100EBDC
:103AF000C10030BC70477CB5054600240E468DF8E9
:103B000000406846FFF784FF0DF10100FFF7DBFF7F
:103B100008B9042406E0067045609DF80100DFF84E
:103B2000741448709DF80000FFF78EFF24B9DFF889
:103B300068144FF480100860204676BDF8B5DFF8B1
:103B40005C04DFF850540021016441648164C16465
:103B500001604160EC68A4B3DFF8440400682F6999
:103B6000C71B002627F07F472068874215D33F1ADE
:103B700086192146E469087C68B100224B690A7401
:103B80008969EA692AB11846904720B1C046C04603
:103B900001E008469847002CE6D1687A297A8142EC
:103BA00005D1401CC2B2022A08BF0020687205F18C
:103BB0001400697ADFF8E02340F821604FF48010A8
:103BC0001060F1BD2DE9F84FDFF8C843217A627A21
:103BD000206900269142804610D0491CCBB2022BAE
:103BE00008BF002121724FF0010E217A04EB8102FF
:103BF0005569281820F07F40206101E00025B64675
:103C0000D4F80CB094F800C0636894F8019058465A
:103C10005FFA8CF1494535D001EB410203EBC2015B
:103C20000CF1010CA7785FFA8CF2BA420A7808BF4F
:103C3000B446022A07D0032AEAD100281CBF067422
:103C4000C069FAD1E4E74A688246514601E08A46F3
:103C5000C9690029DCD09142F9D18A4504BFC06905
:103C6000002806D1DFF83C730122BA6026610127E3
:103C7000E772CA691AB117680968CF191760CAF8DC
:103C80001C20C5E7584514BF4FF0010CB446BEF1E7
:103C9000000F834623D0002215E06D1A8A180021F8
:103CA000CBF800100746DBF81C00DBF80C1051B114
:103CB00002EB080ECBF81C602EF07F4ECBF804E030
:103CC000CBF808103E4638B18346DBF800108D4231
:103CD000E3D24D1BCBF8005083464FF0010CD4F8D3
:103CE00010E0DFF8C4823246594600E031465ABB44
:103CF0002078484558D0A77800EB4005401CC6B254
:103D0000BE4203EBC50508BF0020207028786E680E
:103D1000012804BF307C0028EAD1A8687060E868F8
:103D2000B0602869F0606D69B561E07A08B100257E
:103D300075607068A0EB0E0525F07F45454506D2FD
:103D40002846B56828180BE01646F269F1E7AEEB95
:103D50000000B56820F07F40A84234BF281A002038
:103D60003060002500207060B560012030740029AB
:103D7000F561BBD008683568A84203D3401B0860D2
:103D8000F161B3E78A4608460768AF4209D2824626
:103D9000C069ED1B0028F7D13560F061CAF81C60DE
:103DA000A5E77F1B0760F7E7594508BFBCF1000F87
:103DB000E1603FD0002939D0D1F800B0784E3568A5
:103DC0007746E81B20F07F4000F1030AA07A90B903
:103DD00076484FF48031016401604FF4003074493B
:103DE0000860744A106001236E4803602F2000F0C1
:103DF000E5F80121A172D34538BFD346BB442BF06F
:103E00007F40F063401B20F07F413068451B25F068
:103E10007F45ED1CA9420DD23068F0632F2000F0E1
:103E2000CDF85D494FF40030086003E00022E26005
:103E3000FFF726FE0020E072BDE8F18F2DE9F0418A
:103E40000546144614F003000E46984600D114B9F6
:103E50000720BDE8F0814C494FF400300860BFF303
:103E60004F8FBFF36F8F4FF480314848484F016444
:103E70000160012038602F2000F0A0F80120786058
:103E80000021444F39612F2000F098F80020B872CB
:103E9000C7F81C803880BE707C60F86038814FF4B1
:103EA000801043490860C0224349CA70414B1860E2
:103EB0003B4845600A70006838610020BDE8F08129
:103EC000DFF8D0C0DCF8043043B1130018BF00287D
:103ED00001D1072070470368187C08B1082070479B
:103EE000187459745A6170472DE9F843294F0446F4
:103EF0007868002818BF002C0E46904605D0042E86
:103F000098BF07202FD9606910B90820BDE8F28357
:103F1000607C01280CBFB1464FF0000900258DF8E8
:103F200000506846FFF774FD0DF10100FFF7CBFD6F
:103F300008B904250DE0012101704460184A116898
:103F40008160C660C0F81090C0F814809DF8010030
:103F500078709DF80000FFF777FD1DB90E494FF40A
:103F6000801008602846BDE8F2830A4A516800299B
:103F700018BF002801D0416909B908207047002105
:103F800001740221B7E5000080E100E00813014060
:103F9000041001401094002000E200E000110140F4
:103FA0000415014000100140FFFF7F000413014091
:103FB00080E200E000E100E011E400E000283ED0F3
:103FC00000BF00BF00BF00BF00BF00BF00BF00BFF9
:103FD00000BF00BF00BF00BF00BF00BF00BF00BFE9
:103FE00000BF00BF00BF00BF00BF00BF00BF00BFD9
:103FF00000BF00BF00BF00BF00BF00BF00BF00BFC9
:1040000000BF00BF00BF00BF00BF00BF00BF00BFB8
:1040100000BF00BF00BF00BF00BF00BF00BF00BFA8
:1040200000BF00BF00BF00BF00BF00BF00BF00BF98
:1040300000BF00BF00BF00BF00BF401EC0D170471F
:10404000DFF89814402008605FF08061DFF890048A
:10405000016030BF4160704730B597B042F6041040
:1040600000F078FADFF87C440FF2E440002350229D
:1040700004F1080100F0FCFA08B1C046C0466A46E7
:104080000121002000F039FB08B1C046C0461720CE
:10409000ADF81000684600F047FB08B1C046C046C6
:1040A0000FF21D3000F00BFB08B1C046C0460FF206
:1040B000454000F00CFB08B1C046C046FDF702F9D0
:1040C00008B1C046C04605216846FEF79DFA31207A
:1040D0008DF8000007219DF803008DF8011040F0D5
:1040E00003008DF8030010229DF804008DF80220D3
:1040F00040F003008DF804006846FDF728F908B188
:10410000C046C0460FF21520FDF70FF908B1C046B2
:10411000C04611208DF8000004220FF2EC316846F1
:104120007CDF08B1C046C046002078DF08B1C04639
:10413000C04601A90020C1E90000ADF808000C222A
:104140004FF4C871ADF80420ADF80620ADF80A10A0
:1041500001A87ADF08B1C046C046382109A8FEF799
:1041600053FA022001218DF824008DF82610062232
:10417000ADF834008DF827200E94202101A8FEF719
:1041800043FA01208DF807007521002200200591D7
:104190000692009001AA0FF21523002109A800F051
:1041A000DFFA08B1C046C046402104A8FEF72CFA49
:1041B0000FF25C31DFF8304304A800F096FC0FF2F8
:1041C000583106A800F091FC0FF260310AA800F007
:1041D0008CFC0FF260310CA800F087FCDDE90C23A9
:1041E000CDE90E23112510A8CDE90045BF49029164
:1041F000002205734273CDF840D004A800F0D0FC33
:1042000008B1C046C04600F00FFE1C216846FEF70C
:10421000FBF9002100914FF420324FF470210192FC
:104220000291032200218DF80C20ADF80E108DF8BC
:10423000101068460FF2CD010FF26D120591069233
:1042400000F016FF08B1C046C046032000F016FB80
:1042500008B1C046C04617B030BD2DE9F8438AB05A
:10426000002304461746ADF800300E46142205A878
:10427000FDF718FC01A8002100220023002580E89A
:104280002E004FF001098DF80690ADF80440CDF8EE
:104290000CD0974D02E0E868401CE860BDF80800CB
:1042A000B8421FD23A1A142A3ABF391A1FFA81F8B3
:1042B0004FF0140850B1311842463046FDF7F2FB7A
:1042C000C8F1140106EB0800FCF7D8F9288901A908
:1042D000A6DFBDF8081041440028ADF80810DAD078
:1042E0004FF00009142205A93046FDF7DBFB4846D4
:1042F0000BB0BDE8F0837E48C168481E8041C043D2
:10430000C00F7047007838B9794A10893B2176DFB1
:10431000002818BFFFF7A5B97047000001780E29E3
:1043200000D9704780B5DFE801F0083E0E14202A5E
:10433000373E313E3733373E3C008088FDF77AF810
:10434000112830D029E08088FDF774F811282AD090
:1043500023E0418941F20602914224D140880121A3
:10436000FCF7FEFF08281ED017E000BF77A10A78EF
:104370008DF8002069464088FCF7FBFF01BDFBF784
:104380001DFF0E2818BF08280DD006E0002005E00C
:10439000032000F073FA00E0806820B1C046C046F8
:1043A00001BDFCF7E8FF01BDFFF75BB920B10328B1
:1043B00005D1042000F015BF042000F00CBF7047A9
:1043C00038B588B00446FDF78FFA2046FCF768FF41
:1043D000204600F0A0FE208801286FD0022840D09F
:1043E000102856D0112862D03B2848D051280AD036
:1043F000522848D0552802D056283CD066E0A088E4
:104400001721ADDF4FE004A8A11D1022FDF74AFBE4
:104410009DF81000002859D09DF8180004281CBFF2
:104420000628052852D168460021002200230025D5
:1044300080E82E009DF81010022909D19DF8061081
:10444000022041F001018DF800008DF8061002E015
:1044500001218DF80010ADF804206946A088A8DF7E
:1044600021E023494FF48060888001F110020A6046
:10447000A08867DF17E0A088132176DF13E0A0880B
:10448000132176DF0FE01A48008900230022002163
:1044900008E0022000F0A5FEA0881549088100234D
:1044A00000220021A9DF88B1C046C0460EE00220EC
:1044B00000F091FE0E490020C86007E00C48217A08
:1044C000C2688A422CBF511A0021C160204600F008
:1044D000B8FA204600F02DFD09B030BD84E200E0BE
:1044E0000805005040840020554433228877660038
:1044F0003080002010B50446FCF765F82046BDE882
:10450000104000F0CEBA0000574F574C000000009A
:104510004372656172650000313031303330392DBE
:104520003930302D30303131000000005265762EA8
:104530002041000046656220323320323032332081
:1045400031353A30303A30310000000000000000D0
:1045500001000007002801D0401EFDD17047FEE792
:10456000010007D4012200F01F01744B8A4040096A
:1045700043F82020704710B5202808DA7049C14060
:10458000CA070BD500280CD46E49095C0FE04028FF
:10459000FADA0121A0F120029140F5D142F20100A6
:1045A00010BD694900F00F028C1814F8041C490969
:1045B00008290ED2002918BF01290AD0042918BFE2
:1045C000052906D0614A916831B9FFF7C9FF00207B
:1045D00010BD42F2020010BD430952F8231001241D
:1045E00000F01F0004FA00F0084342F82300EEE751
:1045F000FFF736B8F8B5564E307800B9F1BDF0681F
:10460000002400280CBF0127002716E010B1FFF797
:1046100028F81AE0009800F030FE3169A9B100983E
:10462000884712E010B1C046C04602E0B068F168A9
:1046300088472C42E2D14CB92F4670780028DDD152
:10464000684648DF0528E1D101243D46002DF0D120
:1046500070780028D2D17088ADF800006946B06843
:1046600061DF0528DED10125E3E73948007870478E
:1046700070B5C9B111F0030416D1354C6360628086
:10468000A1602E4B1A6812F0010206D0314E0125AE
:104690003560BFF34F8FBFF36F8F2F4910DF28B105
:1046A00062B10121196070BD072070BD012020702A
:1046B00000F0F2FDBDE8704016205CE770BD01001F
:1046C00001D10E2070472249C860002070470100C8
:1046D00001D10E2070471E4908610020704780B547
:1046E0001B48406828B1804730B1BDE80240FEF762
:1046F000B8BFBDE801407DE701BD70B504460D4679
:1047000016461C213046FDF77FFF01223280002330
:10471000307DB36100F0FE00307535727472200098
:1047200018BFB272002070BD82B00C4A009201A97D
:10473000009B019360DF009902B0704700E100E048
:10474000FC06FFBC00E400E018ED00E0F09400205F
:10475000DC94002080E100E0F145020000800020B0
:104760002DE9F84F0400174614BF002F0E200D4608
:1047700000F081801A46DFF858030A99DFF8546385
:10478000012303720023C3723B46B3E8805FA6E8AF
:10479000805F1F683760426181614FF6FF7202825D
:1047A0000721FDF731FFDFF8306338213046FDF790
:1047B0002BFF20783070A178B170E078F0706178CC
:1047C0007170D4E90423C6E90423D4E90201C6E9DF
:1047D0000201D4E90623C6E90623DFF80013606A64
:1047E00001F14002A0B172629160606A0388138097
:1047F00000238088908058B10F46D4F824C0DCF89C
:1048000008E01EF8038007F8018B5B1C8342F4D399
:10481000A06AF0B101F12003536101F14C00B062D4
:10482000A06A83881382002300889081108A60B177
:1048300001F12007D4F828C0DCF808E01EF8038056
:1048400007F8018B5B1C8342F4D394F82C0086F8A4
:104850002C00206A30B158313162206A418851837E
:1048600000881083606800B1706029463046BDE85A
:10487000F44F00F05BBFBDE8F28F0000F0B5944C40
:104880000646207A85B010B9082005B0F0BDE67262
:1048900004A8FBF790FE049810B101216172CDE0ED
:1048A00007212046FDF7B0FE8A4D687810B1E07A06
:1048B000012806D0A87868B1E07A012818BF02283C
:1048C00008D1616921B1012020730820884701E0E7
:1048D000002020736078002804BFA07800280DD144
:1048E000E078002804BF2079002807D1607928B932
:1048F000A079401E8041C043C00F00E00120761E19
:10490000032E16D8DFE806F002070D11697811B101
:1049100038B101200EE0A97800291CBF0028022030
:1049200008D1E87808B1032004E0287908B1042010
:1049300000E000206169E07279B1E07A032818BFD5
:1049400004280AD1287840B1607B30B901200022C8
:10495000A073E2730720884701E00020A073684637
:10496000002200230026002780E8CC008DF80020DC
:104970008DF80830E27AA17A042A33D8DFE802F011
:1049800059030D1A3D00012101948DF80010ADF876
:104990000C30ADF80A3001202DE0E868ADF80C00CD
:1049A00001218DF800100221A8680194ADF80A00D9
:1049B000A1721AE028696969ADF80A00ADF80C1017
:1049C0002878B8B1607BA8B9E07B98B102218DF856
:1049D000081004214048C170002100F0A7FEA17A10
:1049E00000B90521E07AA17220B3684673DF08B3ED
:1049F00005B0F0BD0320A072F7E7A869E969ADF83A
:104A00000A00ADF80C10287888B1607B78B9E07B9B
:104A100068B102218DF8081004212F48C1700021CF
:104A200000F084FEA17A0028DCD10621DAE7042018
:104A3000E1E7A372616909B1A07A8847002005B057
:104A4000F0BD10B50188102904D0112909D01B2907
:104A500010D010BDC27B012A22D180881C49088257
:104A600010BD1B4C002161738088218A884217D1B8
:104A700001200DE0007A98B9154CE07A401C81B213
:104A80004CF6CD424A43920C02EB8202801AC0B22D
:104A9000FFF7F4FE00281CBFA169002900D014E034
:104AA00010BD801E012800D9704710B5084C607AEF
:104AB00050B100216172E07AFFF7E0FE00281CBFD0
:104AC000A169002900D000E010BDBDE810400847F2
:104AD0009094002030940020A09200205C90002050
:104AE0000078FFE700F00100704738B504460D4636
:104AF000284600F04DFE2080656031BD2DE9F04173
:104B00008EB006460C0090461F4604BF0020FEF7FC
:104B1000A8FD5FEA080004BF0020FEF7A2FD149D77
:104B20001C2107A8FDF770FD9DF81C10ADF804606E
:104B300041F002018DF81C10002201218DF80610B1
:104B400008920A920B920C920D9203216846FDF78F
:104B50005BFD38788DF800009DF8020079788DF8BB
:104B6000011000F0E20040F002008DF80200142174
:104B700002A8FDF749FD069401A802900021A94C66
:104B80002088ADF81210CDF80CD0ADF81080ADF83B
:104B900014802B4602AA07A9A2DF0EB0BDE8F0815F
:104BA0002DE9784391B001218DF80A10064641F6AF
:104BB0000A039C4DADF808302A4602A90120A0DF67
:104BC000002840F02B8132885AB1281D009006F150
:104BD0003C03716842F62920FFF790FF002840F05F
:104BE0001D81328962B105F10C00009006F13C0391
:104BF000F16842F62420FFF781FF002840F00E8183
:104C0000328A62B105F11400009006F13C0371692B
:104C100042F62520FFF772FF002840F0FF80328B1C
:104C200062B105F11C00009006F13C03F16942F607
:104C30002720FFF763FF002840F0F080328C62B13C
:104C400005F12400009006F13C03716A42F626202B
:104C5000FFF754FF002840F0E180328D62B105F18A
:104C60002C00009006F13C03F16A42F62820FFF781
:104C700045FF002840F0D280306B002863D0D0E997
:104C800000238DF80C20D0E9008903A94FEA0842DF
:104C9000120E4A70D0E90023120C8A70D0E9008904
:104CA0004FEA1862CA70D0E900230B7182684A711A
:104CB00083681B0A8B718068000CC8711C210AA8CC
:104CC000FDF7A2FC9DF8281041F002018DF8281094
:104CD00000220B920D920E920F92109201218DF8EC
:104CE000061042F62322ADF8042003216846FDF7A2
:104CF0008BFC96F83C008DF800009DF8020096F8B9
:104D00003D108DF8011000F0E20040F002008DF837
:104D10000200142105A8FDF777FC01A900220591E6
:104D2000ADF81E20082103AAADF81C10ADF8201024
:104D30000992CDF818D005F13403288805AA0AA9EC
:104D4000A2DF00286AD1706B60B105F13C010091CF
:104D500006F13C030279016842F62A20FFF7CEFEF5
:104D600000285BD1B46B002C57D004BF0020FEF7A5
:104D700078FC20788DF80C0003A960884870000A40
:104D80008870A088C870000A0871E0884871000A1D
:104D900088711C210AA8FDF737FC9DF8281041F006
:104DA00002018DF8281000220B920D920E920F92A4
